{
    "contractName": "FileStorage",
    "abi": [
        {
            "anonymous": false,
            "inputs": [
                {
                    "indexed": true,
                    "internalType": "address",
                    "name": "user",
                    "type": "address"
                },
                {
                    "indexed": false,
                    "internalType": "string",
                    "name": "fileName",
                    "type": "string"
                },
                {
                    "indexed": false,
                    "internalType": "string",
                    "name": "fileHash",
                    "type": "string"
                },
                {
                    "indexed": false,
                    "internalType": "uint256",
                    "name": "timestamp",
                    "type": "uint256"
                }
            ],
            "name": "FileAdded",
            "type": "event"
        },
        {
            "inputs": [
                {
                    "internalType": "string",
                    "name": "_fileName",
                    "type": "string"
                },
                {
                    "internalType": "string",
                    "name": "_fileHash",
                    "type": "string"
                }
            ],
            "name": "uploadFile",
            "outputs": [],
            "stateMutability": "nonpayable",
            "type": "function"
        },
        {
            "inputs": [],
            "name": "getFiles",
            "outputs": [
                {
                    "components": [
                        {
                            "internalType": "string",
                            "name": "fileHash",
                            "type": "string"
                        },
                        {
                            "internalType": "string",
                            "name": "fileName",
                            "type": "string"
                        },
                        {
                            "internalType": "uint256",
                            "name": "timestamp",
                            "type": "uint256"
                        }
                    ],
                    "internalType": "struct FileStorage.File[]",
                    "name": "",
                    "type": "tuple[]"
                }
            ],
            "stateMutability": "view",
            "type": "function",
            "constant": true
        },
        {
            "inputs": [
                {
                    "internalType": "string",
                    "name": "_fileHash",
                    "type": "string"
                }
            ],
            "name": "verifyFile",
            "outputs": [
                {
                    "internalType": "bool",
                    "name": "",
                    "type": "bool"
                }
            ],
            "stateMutability": "view",
            "type": "function",
            "constant": true
        }
    ],
    "bytecode": "0x608060405234801561000f575f80fd5b50610e628061001d5f395ff3fe608060405234801561000f575f80fd5b506004361061003f575f3560e01c80632da96d7314610043578063996d50bf14610061578063b02710231461007d575b5f80fd5b61004b6100ad565b604051610058919061078b565b60405180910390f35b61007b600480360381019061007691906108e8565b61026c565b005b6100976004803603810190610092919061095e565b61037a565b6040516100a491906109bf565b60405180910390f35b60605f803373ffffffffffffffffffffffffffffffffffffffff1673ffffffffffffffffffffffffffffffffffffffff1681526020019081526020015f20805480602002602001604051908101604052809291908181526020015f905b82821015610263578382905f5260205f2090600302016040518060600160405290815f8201805461013a90610a05565b80601f016020809104026020016040519081016040528092919081815260200182805461016690610a05565b80156101b15780601f10610188576101008083540402835291602001916101b1565b820191905f5260205f20905b81548152906001019060200180831161019457829003601f168201915b505050505081526020016001820180546101ca90610a05565b80601f01602080910402602001604051908101604052809291908181526020018280546101f690610a05565b80156102415780601f1061021857610100808354040283529160200191610241565b820191905f5260205f20905b81548152906001019060200180831161022457829003601f168201915b505050505081526020016002820154815250508152602001906001019061010a565b50505050905090565b5f60405180606001604052808381526020018481526020014281525090505f803373ffffffffffffffffffffffffffffffffffffffff1673ffffffffffffffffffffffffffffffffffffffff1681526020019081526020015f2081908060018154018082558091505060019003905f5260205f2090600302015f909190919091505f820151815f0190816103009190610bd2565b5060208201518160010190816103169190610bd2565b506040820151816002015550503373ffffffffffffffffffffffffffffffffffffffff167f4f8607bd9635a4433598b05ced373d34751cfcd6e7364b645aec93e4f692247584844260405161036d93929190610cf8565b60405180910390a2505050565b5f805f803373ffffffffffffffffffffffffffffffffffffffff1673ffffffffffffffffffffffffffffffffffffffff1681526020019081526020015f20805480602002602001604051908101604052809291908181526020015f905b82821015610530578382905f5260205f2090600302016040518060600160405290815f8201805461040790610a05565b80601f016020809104026020016040519081016040528092919081815260200182805461043390610a05565b801561047e5780601f106104555761010080835404028352916020019161047e565b820191905f5260205f20905b81548152906001019060200180831161046157829003601f168201915b5050505050815260200160018201805461049790610a05565b80601f01602080910402602001604051908101604052809291908181526020018280546104c390610a05565b801561050e5780601f106104e55761010080835404028352916020019161050e565b820191905f5260205f20905b8154815290600101906020018083116104f157829003601f168201915b50505050508152602001600282015481525050815260200190600101906103d7565b5050505090505f5b81518110156105cf57836040516020016105529190610d75565b6040516020818303038152906040528051906020012082828151811061057b5761057a610d8b565b5b60200260200101515f01516040516020016105969190610d75565b60405160208183030381529060405280519060200120036105bc576001925050506105d5565b80806105c790610de5565b915050610538565b505f9150505b919050565b5f81519050919050565b5f82825260208201905092915050565b5f819050602082019050919050565b5f81519050919050565b5f82825260208201905092915050565b5f5b8381101561063a57808201518184015260208101905061061f565b5f8484015250505050565b5f601f19601f8301169050919050565b5f61065f82610603565b610669818561060d565b935061067981856020860161061d565b61068281610645565b840191505092915050565b5f819050919050565b61069f8161068d565b82525050565b5f606083015f8301518482035f8601526106bf8282610655565b915050602083015184820360208601526106d98282610655565b91505060408301516106ee6040860182610696565b508091505092915050565b5f61070483836106a5565b905092915050565b5f602082019050919050565b5f610722826105da565b61072c81856105e4565b93508360208202850161073e856105f4565b805f5b85811015610779578484038952815161075a85826106f9565b94506107658361070c565b925060208a01995050600181019050610741565b50829750879550505050505092915050565b5f6020820190508181035f8301526107a38184610718565b905092915050565b5f604051905090565b5f80fd5b5f80fd5b5f80fd5b5f80fd5b7f4e487b71000000000000000000000000000000000000000000000000000000005f52604160045260245ffd5b6107fa82610645565b810181811067ffffffffffffffff82111715610819576108186107c4565b5b80604052505050565b5f61082b6107ab565b905061083782826107f1565b919050565b5f67ffffffffffffffff821115610856576108556107c4565b5b61085f82610645565b9050602081019050919050565b828183375f83830152505050565b5f61088c6108878461083c565b610822565b9050828152602081018484840111156108a8576108a76107c0565b5b6108b384828561086c565b509392505050565b5f82601f8301126108cf576108ce6107bc565b5b81356108df84826020860161087a565b91505092915050565b5f80604083850312156108fe576108fd6107b4565b5b5f83013567ffffffffffffffff81111561091b5761091a6107b8565b5b610927858286016108bb565b925050602083013567ffffffffffffffff811115610948576109476107b8565b5b610954858286016108bb565b9150509250929050565b5f60208284031215610973576109726107b4565b5b5f82013567ffffffffffffffff8111156109905761098f6107b8565b5b61099c848285016108bb565b91505092915050565b5f8115159050919050565b6109b9816109a5565b82525050565b5f6020820190506109d25f8301846109b0565b92915050565b7f4e487b71000000000000000000000000000000000000000000000000000000005f52602260045260245ffd5b5f6002820490506001821680610a1c57607f821691505b602082108103610a2f57610a2e6109d8565b5b50919050565b5f819050815f5260205f209050919050565b5f6020601f8301049050919050565b5f82821b905092915050565b5f60088302610a917fffffffffffffffffffffffffffffffffffffffffffffffffffffffffffffffff82610a56565b610a9b8683610a56565b95508019841693508086168417925050509392505050565b5f819050919050565b5f610ad6610ad1610acc8461068d565b610ab3565b61068d565b9050919050565b5f819050919050565b610aef83610abc565b610b03610afb82610add565b848454610a62565b825550505050565b5f90565b610b17610b0b565b610b22818484610ae6565b505050565b5b81811015610b4557610b3a5f82610b0f565b600181019050610b28565b5050565b601f821115610b8a57610b5b81610a35565b610b6484610a47565b81016020851015610b73578190505b610b87610b7f85610a47565b830182610b27565b50505b505050565b5f82821c905092915050565b5f610baa5f1984600802610b8f565b1980831691505092915050565b5f610bc28383610b9b565b9150826002028217905092915050565b610bdb82610603565b67ffffffffffffffff811115610bf457610bf36107c4565b5b610bfe8254610a05565b610c09828285610b49565b5f60209050601f831160018114610c3a575f8415610c28578287015190505b610c328582610bb7565b865550610c99565b601f198416610c4886610a35565b5f5b82811015610c6f57848901518255600182019150602085019450602081019050610c4a565b86831015610c8c5784890151610c88601f891682610b9b565b8355505b6001600288020188555050505b505050505050565b5f82825260208201905092915050565b5f610cbb82610603565b610cc58185610ca1565b9350610cd581856020860161061d565b610cde81610645565b840191505092915050565b610cf28161068d565b82525050565b5f6060820190508181035f830152610d108186610cb1565b90508181036020830152610d248185610cb1565b9050610d336040830184610ce9565b949350505050565b5f81905092915050565b5f610d4f82610603565b610d598185610d3b565b9350610d6981856020860161061d565b80840191505092915050565b5f610d808284610d45565b915081905092915050565b7f4e487b71000000000000000000000000000000000000000000000000000000005f52603260045260245ffd5b7f4e487b71000000000000000000000000000000000000000000000000000000005f52601160045260245ffd5b5f610def8261068d565b91507fffffffffffffffffffffffffffffffffffffffffffffffffffffffffffffffff8203610e2157610e20610db8565b5b60018201905091905056fea2646970667358221220cef8a6601e82f307da88d43a9f64097f837664d9203c211af1b55c21daecec8264736f6c63430008150033",
    "immutableReferences": {},
    "source": "// SPDX-License-Identifier: MIT\r\npragma solidity ^0.8.0;\r\n\r\ncontract FileStorage {\r\n    // Struct to represent a stored file\r\n    struct File {\r\n        string fileHash;   // File hash to verify integrity\r\n        string fileName;   // Original file name\r\n        uint256 timestamp; // Timestamp of when the file was uploaded\r\n    }\r\n\r\n    // Mapping of user address to their stored files\r\n    mapping(address => File[]) private userFiles;\r\n\r\n    // Event emitted when a file is added\r\n    event FileAdded(address indexed user, string fileName, string fileHash, uint256 timestamp);\r\n\r\n    // Function to upload a file\r\n    function uploadFile(string memory _fileName, string memory _fileHash) public {\r\n        File memory newFile = File({\r\n            fileHash: _fileHash,\r\n            fileName: _fileName,\r\n            timestamp: block.timestamp\r\n        });\r\n\r\n        userFiles[msg.sender].push(newFile);\r\n\r\n        emit FileAdded(msg.sender, _fileName, _fileHash, block.timestamp);\r\n    }\r\n\r\n    // Function to get a user's files\r\n    function getFiles() public view returns (File[] memory) {\r\n        return userFiles[msg.sender];\r\n    }\r\n\r\n    // Verify file integrity\r\n    function verifyFile(string memory _fileHash) public view returns (bool) {\r\n        File[] memory files = userFiles[msg.sender];\r\n        for (uint256 i = 0; i < files.length; i++) {\r\n            if (keccak256(abi.encodePacked(files[i].fileHash)) == keccak256(abi.encodePacked(_fileHash))) {\r\n                return true; // File exists and is unmodified\r\n            }\r\n        }\r\n        return false; // File not found or tampered\r\n    }\r\n}\r\n",
    "sourcePath": "C:\\Users\\saran\\Dropbox\\PC (2)\\Desktop\\CC project\\local-blockchain\\contracts\\FileStorage.sol",
    "compiler": {
        "name": "solc",
        "version": "0.8.21+commit.d9974bed.Emscripten.clang"
    },
    "schemaVersion": "3.4.16",
    "updatedAt": "2024-11-24T06:50:01.008Z",
    "networkType": "ethereum",
    "devdoc": {
        "kind": "dev",
        "methods": {},
        "version": 1
    },
    "userdoc": {
        "kind": "user",
        "methods": {},
        "version": 1
    }
}